:020000040000FA
:100000008316811300308500FF30860083120514AB
:1000100085100511851105128C015F28B0309D00F7
:10002000662053309D00662000309D0066200C172E
:1000300008000C108C100C150511851105168C1A72
:100040000800B0309D00662053309D0066207F3050
:100050009D0066208C110C120C138C1608000C10DD
:100060000C118C140515851105128C1908000C1F34
:100070000E20B0309D00662052309D0066207F30FB
:100080009D0066200C128C120C138C1508008C102D
:100090000C110C140511851505120C1A08000C1F03
:1000A0000E20B0309D00662052309D00662000304A
:1000B0009D0066208C118C120C130C160800061C77
:1000C0004720861C2F20061D19205F288514051047
:1000D00008309F009F0B6A2808309B009D0C031876
:1000E0007428000005107728051400000000073070
:1000F0009F009F0B79289B0B6E28000000000000DA
:10010000000000000514000000001A309F009F0B43
:060110008728851008009D
:02400E00F13F80
:00000001FF
